:100000000C9451050C946E050C946E050C946E05C1
:100010000C946E050C946E050C946E050C946E0594
:100020000C946E050C946E050C946E050C946E0584
:100030000C946E050C946E050C946E050C946E0574
:100040000C946E050C946E050C946E050C946E0564
:100050000C946E050C946E050C946E050C946E0554
:100060000C9493080C946E05F91225133C13571346
:100070008113AF13C913011470510386400D4FEB68
:100080003ECCD18735BDF50B5ED0F8F2D5E26C31B0
:100090000CADFC21C378C106C24C55E64A34481168
:1000A0001EDAE71A84A096A7E37FAF639CFA235B6E
:1000B00079C89EBAB2C922124BB3A1B63249A2E1A5
:1000C00089391066C5078F54EA91CA3FF919F0D7EC
:1000D00046BC281B61E82F6AAE9DF64E0914774D89
:1000E000DB1F2E7B7CF143A300B8138C85B92975E7
:1000F00088FDD2561C509741E53B60B5C064EE9830
:10010000D62D25A4AACD7DA883C6ABBE4499263C96
:10011000CE9FBFD3CB767A7E82018A9A801D0EB0A5
:100120005CD43862F430E08E53B70257ACA6520A62
:100130006D9265172433457274B1B4F75DED2CFFF1
:1001400047375A90BBDF2A165995D9C4276773C71A
:1001500068FEA5DD6B5F93D8EC053A8D6EFB3DA97B
:100160006936F394DEEF156F8B9B080FDC81182046
:1001700004E471CFE92B425801A0A962D63F85A7BC
:10018000B6D4FA15661709BD5D1434265972915418
:10019000064FF8B05B7493998CF245CDEA4EAD10E2
:1001A0004AE5CAEEDFC66F9F888E02CC08A8779416
:1001B0006D21B128E4397996607181162EE678B9FF
:1001C000C4469A42AEB77C43B3221A86C2323D2D52
:1001D0009CD229E9639BD131385E1E3641BB03189E
:1001E0002B3EBF6861FC52C0DEE00A58135A00BEC5
:1001F0001C900E5312FDE26EBACE2427447F87A3D3
:10020000A1D55040E3F983F7C7A235C8DB19AB2F5E
:100210001125ED339E55E148AF7384DA2AAA51EBDC
:100220009D95B2CBE77080FE4C6504EFC5F1C33AF3
:10023000B4F55F2389DD30A58BD3F6DC4D64D7F0B0
:100240008FEC56375CA40D07768A2C0BB5D8C11FEE
:10025000E83BF44B1B476C49677B92CF757E20D9F6
:100260007D3C977AD0056B0F1DFB8298578DF36A02
:10027000BCACC9A6FFB8690C4C4D72075A49338D06
:10028000A2AB463D630DA097FFF0F5FAC0E9DB6233
:10029000E4E17443DC86182937F406E2ED6F9048F8
:1002A0001E2D1DEA739454DF25F64727D91177C90F
:1002B000841C5B5C5181A6223E2496C88AEC827C19
:1002C00009B8454A57BB2F50758E61708C6CAFD002
:1002D000FDB41BAEDEFE3BB536BD55010E9C41564E
:1002E0005FB3260383BA134BCAC50AF860A5B9C722
:1002F000C39832FB12F9A792AA68F3787E052021F1
:1003000002E8BFF2B0598FD2CB876515F11AB2302F
:10031000ADEE58A38B661F2CD75D1985A8E6D36B6D
:10032000A10C91936A5E0B79E3DD004F3C896E71FD
:1003300069A9AC40E59928C6314E7ACD089E7DEF7B
:1003400017FC88D8A46D4495D1B7D49BBE2A3464D9
:100350002BCF2EEB38CE23E03A3FF77B9F1053BCD8
:10036000526716E7807604C4B6C1C27F9ADAD539DF
:1003700042149DB10F35D6CCB9DA380CA29C091FB6
:1003800006B1B6FD1A692330C4DE01D1F45829370D
:100390001C7DD5BFFFBDC8C9CF65BE7B7897986768
:1003A00008B32657F7FA40AD8E75A67CDB918B51CA
:1003B00099D4177A908DCE63CB4EA0AB183A5B5090
:1003C0007F2174C1BBB8B7BA0B359531599A4D042A
:1003D000071E5A7613F37183D08603A83942AA28E0
:1003E000E6E4D85DD3D06E6F96FB5EBC56C25F85E7
:1003F0009BE7AFD23B846AA753C54449A5F936723F
:100400003D2CD91BA1F54F939D68474116CA2A4C34
:10041000A387D6E5192E77156D70C0DFB20046EDC3
:10042000C66C4360922DA922458F3455AEA40A664E
:1004300032E0DC02ACE8208C89624AFEEEC3E33C89
:10044000F17905E9F62733CCF29E11817E80108A7E
:10045000829F480DD7B4FC2FB5C7DD88146B2B5491
:10046000EA1D945CB0EF1224CDEBE1E264733F0E21
:100470005261253EF80F4BECC00030F602493D10AA
:100480006E20C9A62FFE2C2B752E4526AB48A980C1
:10049000FC04CCD3B5BAA338317D01D9A77B96B67D
:1004A00063694EF7DEE078CA50AA41916588E4217D
:1004B00085DA3A27BE1C3E425E17527F1F89246FA1
:1004C0008F5C67740E12878DE934ED73C4F8615B3D
:1004D00005DF594C97798318A45595EBBD53F5F179
:1004E0005766469FB2810951862216DD23937629ED
:1004F000C2D71DD4BF363FEA4B1132B9625460D621
:100500006D439A0D929CB0EF586C9D772D70FAF365
:10051000B30BE2407EF48AE58C3C5671D164E182F3
:100520000ACB131590EC0399AF145D0F334A94A5D1
:10053000A8351BE36AC628FF4DE72584AC08AEC585
:10054000A22AB8370C7AA0C3CEAD061A9E8BFBD573
:10055000D0C11ED0B49BB144F247C768CF72BB4F25
:100560005AF9DC6BDBD2E87CC8EE98A1E6D83907F3
:100570005FFD8E19B73BBCCD7CE38173B211BF6FB9
:100580002098FE7596EF6CDA50E109725445BA3442
:10059000805BED3E532C87A457F3333F3CB767B4E1
:1005A000A325604F076B1B47150FE40AEAD1327889
:1005B00036498D4BD2BCA5DC1D0D4DCD9A825FFC1A
:1005C0009465BEE2F4C91E44CB9E0C64712663B3ED
:1005D00014E840708A0E19426DAC88105CDF41A9A6
:1005E000ADE5FB74CCD5068E5986CE1F3D76E08FE7
:1005F000B977277BA6D829D3ECB813F7FAC3516A89
:10060000DE4A5AEBC28B234892CF62A899F8D02ECB
:10061000856143C8BDF00593CA4EF17D30FDC469C4
:10062000662F08B152F921E67A2BDD3984FFC0919B
:10063000D637D47F2D9B5DA13B6EB5C54604F590A2
:10064000EE7E831C0356B6AA0017013555790B12AE
:10065000BB1A31E7022816C1F6A2DB189C8968385C
:1006600097ABC72AD73AF2C6244CB058A0225E9D59
:10067000D9A7E9AEAF8C959F28B720D7B030C30972
:1006800019C067D6003C7EE7E9F4085AF8B82E0591
:10069000A6259E5CD8150DE1F611546BCD2146665A
:1006A0005E84AD06382944C5A2CEF1AAC140718648
:1006B000B5EFFC36A8CB0A48274564A3AF8CB2C679
:1006C0009F0789DC17D34979FBFE1DD0B9884352B7
:1006D000BC01782B7D94C70EDEA5D59BCCF7617A43
:1006E000C274813903AB96A037BD2D72753FC9D452
:1006F0008E6FF98DED62DB1CDF04AC1B6C144B6359
:10070000D0BFB482EC7B1A5992D21060B63D5FE63E
:10071000806E70C4F235D97CEEE541A45B50DDBB40
:100720004CF31F9D5D57555197E358424D9C73BA4A
:10073000C877316926AEEA8ADA22B38756FA930B74
:10074000341633E8E453BEA9B13A3EF5906ACF3B84
:1007500012FD8F9AA7479199EB0F24FF2318854E1E
:100760007F0CE0A1D2D12C2A4A024F1E95688B98AB
:10077000836D76CA6532132FC3829AA4BA8160371B
:100780003435FC80A8516567ED305F10D34A272FC0
:1007900013B92AD2CCE1EFAEEBBEF4BDCF43B3C563
:1007A0008884B7DD3940CE486D9B72617EE7A14EEB
:1007B000532E773BE2C936221B6E73B103B24C87CE
:1007C000A9D44D0FD8156CAA18F649575DFB7A14B9
:1007D0009463A011B09EDE0546C8EE47DBDC248999
:1007E0009C919729E97BC1071EB8FDFEACC66298B3
:1007F0004FF179E0E86B7856B68D045086CA6F20C9
:10080000E6EAE576171C747FBC0D2C85F76696E446
:100810008B753F4BD938AF7CDA0B832D3132A2F583
:100820001D594145BF3C1FF8F98AD0162569129918
:100830009D2195AB01A6D7B5C07DFF580E3A92D148
:1008400055E3089FD63E528EFAA3C702CDDF8F64D0
:10085000198CF3A70C5E0A6A09F0935B42C2062367
:10086000EC71ADB4CBBB7028D51A5C33685A004428
:1008700090A5C4263D2BF25496ADDA1FED33E181ED
:1008800069080D0ADB35779A64D1FC78AA1BD0671A
:10089000A0DDFA6C63710584176A894F667FC650C4
:1008A00055926FBDE7D240728DBBEC06428AE48858
:1008B0009D7E7A822713411AAFC8A476B4C2FE6D1A
:1008C0001CD96130B37CEAF7290FF23B51C1DE5FDE
:1008D000E52A2F990B5DA32B4AAB95A5D35856EE6D
:1008E000283100CC1546CAE686383C65F5E39FD62C
:1008F0005B094983702D53A97DE2C4AC8E5EB82597
:10090000F4B957F3F16847B2A25920CE34795C901C
:100910000E1EBED52223B1C91862162E913E078F36
:10092000D83F933DD49BDF8521FB117497C7D7DC5B
:100930004C194598E943024BBCC3049C6BF07552BB
:10094000A726F6C5BACFB0B7AE5AA1BF038B8012A7
:100950006E0CEBF9C04424EF10F8A88CE87BFF9EE6
:100960002CCD603687B594A654733A144E011DB64B
:10097000FD37484D39CBE032000000000000000098
:100980000000000000000000000000000000000067
:100990000000000000000000000000000000000057
:1009A0000000000000000000000000000000000047
:1009B0000000000000000000000000000000000037
:1009C0000000000000000000000000000000000027
:1009D0000000000000000000000000000000000017
:1009E0000000000000000000000000000000000007
:1009F00000000000000000000000000000000000F7
:100A000000000000000000000000000000000000E6
:100A100000000000000000000000000000000000D6
:100A200000000000000000000000000000000000C6
:100A300000000000000000000000000000000000B6
:100A400000000000000000000000000000000000A6
:100A50000000000000000000000000000000000096
:100A60000000000000000000000000000000000086
:100A70000000000000000000A877A6E0F7435A3508
:100A800085E272978FB71A6287380D67C7BE4F3EEF
:100A90002076378F68B7A9263F2B10E3307E900E63
:100AA000850A11241FBECFEFD4E0DEBFCDBF11E019
:100AB000A0E0B1E0E4E5FDE202C005900D92AC3D9E
:100AC000B107D9F714E0ACEDB1E001C01D92A43834
:100AD000B107E1F70E940B150C94A8160C940000C6
:100AE00081E08093DD010895E82FF0E0EF50FE4FA4
:100AF00080810895882311F085EC01C085E88093FA
:100B0000BC000895482F50E028E030E0261B310952
:100B1000CA01022E01C0880F0A94EAF702C0559557
:100B200047956A95E2F7842B08956F927F928F9292
:100B30009F92AF92BF92CF92DF92EF92FF920F936C
:100B40001F93CF93DF93CDB7DEB766970FB6F894B8
:100B5000DEBF0FBECDBFC12CD12CE12CF12C08E0A3
:100B600010E0DE01519680E090E096012858354F64
:100B7000F901E80FF91FE491ED9301968630910594
:100B8000B9F7DE01119680E090E0FC01E95FFC4FCF
:100B9000E081F0E0E858FF4FE491ED9301968A3050
:100BA000910599F7AB817E818989872790E04A2F4B
:100BB0004770AA84FD819801241B31093C0102C0C1
:100BC000660C771C2A95E2F702C0959587954A95A1
:100BD000E2F786298A198F278B879980BA818A89BB
:100BE0008B2790E0492D4770E8859801241B310937
:100BF0003C0102C0660C771C2A95E2F702C095956D
:100C000087954A95E2F78629871B8E278C87BF80B8
:100C10002B892B2530E069856770C801861B9109F7
:100C2000A901082E01C0440F0A94EAF7062E02C05B
:100C3000359527950A94E2F7242B2A1B29252D8721
:100C40002C892F2730E04E2F4770942E9C81A801CD
:100C500049195109390102C0660C771C4A95E2F71F
:100C600002C0359527959A94E2F72629291B2A2751
:100C70002E872D892B2730E0AB2DA770A8014A1BAA
:100C80005109490102C0880C991C4A95E2F702C03B
:100C900035952795AA95E2F72829291B2F272F8715
:100CA0002E892E2730E0A90102C0440F551F8A95D6
:100CB000E2F702C0359527956A95E2F7242B271BAA
:100CC0002A25288B46E050E061E073E0CE010B96C8
:100CD0000E94591697012F5F3F4F892B59F07901D8
:100CE00056E0C50ED11C2730310509F03ACF1092DD
:100CF00011033AC140910503922F8827FC01E40FAC
:100D0000F11DE858FF4F349122E0E20EF11C2091D2
:100D10000A03FE2CEE24F701E20FF11DE858FF4F05
:100D2000249123272093F90220910303FC01E20F71
:100D3000F11DE858FF4F349120910C03F701E20FA9
:100D4000F11DE858FF4F249123272093FA022091A8
:100D50000603FC01E20FF11DE858FF4F349120918A
:100D60000E03F701E20FF11DE858FF4F24912327EE
:100D70002093FB0220910103FC01E20FF11DE858D2
:100D8000FF4F349120910903F701E20FF11DE8585C
:100D9000FF4F249123272093FC0220910203FC01A2
:100DA000E20FF11DE858FF4F349120910B03F7013A
:100DB000E20FF11DE858FF4F249123272093FD02F5
:100DC00020910403FC01E20FF11DE858FF4F34911C
:100DD00020911003F701E20FF11DE858FF4F249115
:100DE00023272093FE0220910703FC01E20FF11D4F
:100DF000E858FF4F349120910D03F701E20FF11DE8
:100E0000E858FF4F249123272093FF0220910803E5
:100E1000FC01E20FF11DE858FF4F349120910F03C0
:100E2000F701E20FF11DE858FF4F2491232720938B
:100E3000000320910103FC01E20FF11DE858FF4F70
:100E4000349120910803F701E20FF11DE858FF4F9C
:100E5000249123272093F10220910603FC01E20F45
:100E6000F11DE858FF4F349120910B03F701E20F79
:100E7000F11DE858FF4F249123272093F20220917F
:100E80000403FC01E20FF11DE858FF4F349120915B
:100E90000703F701E20FF11DE858FF4F24912327C4
:100EA0002093F30220910303FC01E20FF11DE858A7
:100EB000FF4F349120911003F701E20FF11DE85824
:100EC000FF4F249123272093F40220910503FC0176
:100ED000E20FF11DE858FF4F349120910E03F70106
:100EE000E20FF11DE858FF4F249123272093F502CC
:100EF00020910203FC01E20FF11DE858FF4F3491ED
:100F000020910F03F701E20FF11DE858FF4F2491E4
:100F100023272093F60220910A03FC01E20FF11D22
:100F2000E858FF4F349120910C03F701E20FF11DB7
:100F3000E858FF4F249123272093F70220910903BB
:100F4000FC01E20FF11DE858FF4F849190910D03D1
:100F5000F701E90FF11DE858FF4FE491E827E0930E
:100F6000F80281E08093110366960FB6F894DEBF15
:100F70000FBECDBFDF91CF911F910F91FF90EF90EA
:100F8000DF90CF90BF90AF909F908F907F906F90A9
:100F90000895863028F4E0911203F0911303099428
:100FA000089590EC980F963098F480E490E029E44E
:100FB00030E0F901E81BF90BDC01AF50BE4F4C915A
:100FC000E95FFC4F408301968634910591F70895BF
:100FD0009AEB980F9630C8F48091370280930A03F9
:100FE000809138028093090380913902809308032D
:100FF00080913A028093070380913B02809306031D
:1010000080913C0280930503089594EB980F9430EF
:10101000C0F490913D029093040390913E0290930E
:10102000030390913F0290930203909140029093AA
:10103000010370E0680F711D6035710511F40C94A7
:1010400095050895462F50E0BC0181EF91E00C9486
:101050006616EF92FF920F931F93CF93DF9300D00A
:10106000CDB7DEB77C01CB011093130300931203BD
:10107000642F29833A830E9422081092E10286E0BD
:10108000F701AFEDB1E001900D928A95E1F786E0AE
:10109000EFEDF1E0ABEEB2E001900D928A95E1F751
:1010A0002981E22F3A81F32F80E290E02191DC0147
:1010B000AF50BE4F2C93019680349105B9F74598F7
:1010C00044981092F0011092EF0184EA8093BA00E4
:1010D00081E48093BC000F900F90DF91CF911F911E
:1010E0000F91FF90EF9008958091DE010895809117
:1010F000DE01811108C08091BC0084608093BC0037
:1011000081E08093DE0108958091EB01089526E04F
:10111000FC01A5EEB1E001900D922A95E1F781E086
:101120008093EC0108951F920F920FB60F92112435
:101130002F933F934F935F936F937F938F939F93DF
:10114000AF93BF93EF93FF938091B900887F80396D
:1011500051F188F4803721F128F4803609F188367E
:10116000F9F0D4C08038F9F0883809F4CFC0883756
:1011700009F0CCC015C0803B09F48DC038F4803A2A
:1011800009F47DC0883A09F0C1C085C0803C09F4EB
:10119000BBC0883C09F4B8C0883B09F484C0B6C021
:1011A0001092EE01B1C08091EE01882309F45AC07B
:1011B0002091BB008091EF019091F001803F91055B
:1011C00089F4253511F02A3A69F41092110386E06A
:1011D000EFEDF1E0ABEEB2E001900D928A95E1F710
:1011E0001092EB018091EF019091F001892B91F425
:1011F000243681F48091EC01882361F086E0E5EEED
:10120000F1E0ABEEB2E001900D928A95E1F781E05A
:101210008093EB01809111038823E1F0A091EF010D
:10122000B091F001E091EF01F091F001E770FF273C
:10123000EF50FD4F8081E091EF01F091F001E770F8
:10124000FF27E750FD4F90818227890FAF50BE4F97
:101250008C934CC0E091EF01F091F001EF50FE4F04
:10126000208344C08091BB0090E09093F001809374
:10127000EF0181E08093EE011092ED0145C0609195
:10128000ED018091EF019091F0019091ED01891BAA
:101290000E94D10739C08091EF019091F0010E9426
:1012A000C9071092ED0180911103E091EF01F091D7
:1012B000F001EF50FE4F8823B1F08081E091EF0103
:1012C000F091F001E770FF27E750FD4F2081E0919A
:1012D000EF01F091F001E770FF27EF50FD4F908193
:1012E000821B892701C080818093BB008091EF0120
:1012F0009091F00101969093F0018093EF0180911D
:10130000ED018F5F8093ED0185EC01C085E880934E
:10131000BC00FF91EF91BF91AF919F918F917F9111
:101320006F915F914F913F912F910F900FBE0F9052
:101330001F901895FC01009701F12091170330913F
:101340001803832F8F708F3021F481E08093140372
:1013500002C01092140380911403882329F083E0C3
:1013600080832183228309C082E08083822F90E0E2
:10137000932B9283818323833483809117039091ED
:1013800018039093160380931503089542E050E0EC
:1013900065E173E087E193E00E9459160895419A50
:1013A00030E33A95F1F7419888E090E020E038E1A9
:1013B0003A95F1F74098220F329B216038E13A9537
:1013C000F1F7409A0197009791F72093170388E06F
:1013D00090E038E13A95F1F74098220F329B216076
:1013E00038E13A95F1F7409A0197009791F72093E9
:1013F000180380E00895CF93CFB7F894399A389ABC
:101400003A98429A409A41980E94CF09CFBF80E013
:10141000CF9108958EE391E008958823C9F091E07B
:10142000E82FFF27E7FDF095292F30E02417350737
:101430006CF4DB01A20FB31F2C9130E0E217F3072D
:101440001CF48FEF890F08959F5FEECF8FE1089511
:1014500080E0089540E250E0623041F0633019F0DE
:101460006AE871E005C06AE671E002C06AE471E012
:101470000C940D0A009741F023E1ECE2F3E0DC016B
:1014800001900D922A95E1F783E1ECE2F3E0A9E106
:10149000B3E001900D928A95E1F708952091B6018D
:1014A000253069F0222359F0892B21F0233039F0BF
:1014B00082E003C0213019F084E08093B6010895E2
:1014C0001F93CF93DF931F92CDB7DEB785E0809354
:1014D000B6011FE02FE389E191E021508040904068
:1014E000E1F700C00000198261E070E0CE010196D2
:1014F0000E94BD0B489721F0115061F780E001C0B8
:1015000081E00F90DF91CF911F91089543E150E06A
:1015100069E173E08CE293E00E94591608951F93ED
:10152000CF93DF93CDB7DEB7A6970FB6F894DEBFA3
:101530000FBECDBF198261E070E0CE0101960E941E
:10154000BD0B883119F01092B60100C1809197034C
:10155000882331F08091B601853011F41092B601E4
:1015600080919703811103C085E08093B60180913B
:10157000B6018230E1F0843099F1811149C083E0F5
:10158000898380E88A8381E08B8342E250E060E8CF
:1015900070E0CE0104960E946F1663E270E0CE0107
:1015A00001960E94BD0B882399F184E02FC013E0BF
:1015B000198380EC8A838BE18B8340E250E061E009
:1015C00070E0CE0104960E946F1663E270E0CE01D7
:1015D00001960E94BD0B8823D9F01093B60118C064
:1015E00083E0898380EC8A838BE18B83FE013496D0
:1015F00080E2DF011D928A95E9F763E270E0CE0197
:1016000001960E94BD0B882319F081E08093B601FA
:1016100081E0898361E070E0CE0101960E94BD0BFC
:10162000803209F093C084E080932C0320E030E006
:1016300080E090E041E050E0FC01E058FC4F608128
:10164000662349F0BA01082E02C0660F771F0A947C
:10165000E2F7262B372B01968031910569F73093FD
:10166000300320932F0319821A8260E080E090E01B
:1016700020E830E0FC01E057FC4F4081442341F07A
:10168000A901082E02C0559547950A94E2F701C0BA
:1016900040E0642B01968830910561F769837A8177
:1016A00080E090E020E830E0FC01E856FC4F40810B
:1016B000442341F0A901082E02C0559547950A948C
:1016C000E2F701C040E0472B01968830910511F008
:1016D000742FEACF4A8360932D0340932E03603822
:1016E00019F481E880932D03403819F481E8809340
:1016F0002E03109231031092320310923303109292
:10170000340380E090E020E830E0FC01E058FC4F3A
:1017100040814423A9F0FC0143E0F595E7954A9503
:10172000E1F7E45DFC4FAC0147705527B90102C0F9
:10173000759567954A95E2F7AB015581542B558312
:1017400001968032910509F780E001C08FEFA696DF
:101750000FB6F894DEBF0FBECDBFDF91CF911F91C2
:1017600008950E948F0A80E008958AEA91E0089522
:101770003B984398249A2C9808950F931F93CF93E6
:10178000DF93662309F44FC07727A0E0B0E040E084
:1017900050E09D0146175707ACF4189610E8FC017D
:1017A000E40FF51F00810123E901C058DC4F0883D5
:1017B0002F5F3F4F16952A173B07A1F74F5F5F4FEB
:1017C000D901E7CFE0E8F3E0CF93DF93EF93FF9306
:1017D0000191002311F049F416C000003B9A19E072
:1017E0000FD03B981197A1F70EC03B9A11E008D09B
:1017F0003B9815E005D000000000119749F703C0A1
:101800001A95F1F708950000FF91EF913B9ADF914F
:10181000CF9100000000000000003B980FEF0A95F8
:1018200011F0339BFCCFE0E8F3E0EF93FF93442704
:1018300000270395A1F03399FCCF08C004E6039577
:1018400072F03399FCCF439551F0019304E6039570
:1018500032F0339BFCCF439511F00193EFCFFF9112
:10186000EF91842F90E00097B9F040FF15C0DF01A1
:101870009D017081618151E0761708F050E05D9321
:1018800032965A2F521B5417A0F324E12A95F1F7F0
:1018900001979595879502C080E090E0DF91CF9108
:1018A0001F910F910895CF93DF931F92CDB7DEB7AD
:1018B000198261E070E0CE0101960E94BD0B009795
:1018C000F1F04897F9F480918403811188E09091B8
:1018D00085039111846090918603911182609091AB
:1018E0008703911181608A3038F4883070F4853034
:1018F00049F481E090E00BC08B3039F003C080E008
:1019000090E005C083E090E002C082E090E00F909C
:10191000DF91CF910895009741F023E1E7E5F3E0EF
:10192000DC0101900D922A95E1F7089543E150E022
:1019300064E473E087E593E00E945916089585E01A
:101940008093570320E030E080E090E041E050E0F9
:10195000FC01E058FC4F6081662349F0BA01082E73
:1019600002C0660F771F0A94E2F7262B372B0196E9
:101970008031910569F730935F0320935E0360E047
:1019800080E090E020E830E0FC01E057FC4F40812F
:10199000442341F0A901082E02C0559547950A94A9
:1019A000E2F701C040E0642B01968830910561F7B1
:1019B000B0E080E090E020E830E0FC01E856FC4F29
:1019C0004081442341F0A901082E02C05595479556
:1019D0000A94E2F701C040E0B42B019688309105EB
:1019E00061F770E080E090E020E830E0FC01E05634
:1019F000FC4F4081442341F0A901082E02C05595B7
:101A000047950A94E2F701C040E0742B01968830B4
:101A1000910561F770935A03A0E080E090E020E820
:101A200030E0FC01E855FC4F4081442341F0A9011E
:101A3000082E02C0559547950A94E2F701C040E090
:101A4000A42B01968830910561F780914303882388
:101A5000A9F080914203681B609358038091410371
:101A6000B81BB093590380914003781B70935A03BD
:101A700080913F03A81BA0935B0313C060934203B4
:101A8000B093410370934003A0933F031092580317
:101A90001092590310925A0310925B0381E08093D5
:101AA000430380E090E060E020E830E0FC01E05596
:101AB000FC4F4081442341F0A901082E02C05595F6
:101AC00047950A94E2F701C040E0642B0196883004
:101AD000910561F760935C0380E090E060E020E8AE
:101AE00030E0FC01E854FC4F4081442341F0A9015F
:101AF000082E02C0559547950A94E2F701C040E0D0
:101B0000642B01968830910561F760935D0388E04E
:101B1000E0E6F3E0DF011D928A95E9F780E090E0CE
:101B200020E830E0FC01E058FC4F40814423A9F05C
:101B3000FC0143E0F595E7954A95E1F7E95AFC4F3A
:101B4000AC0147705527B90102C0759567954A9554
:101B5000E2F7AB015185542B5187019680349105F2
:101B600009F70895CF93DF93CDB7DEB728970FB667
:101B7000F894DEBF0FBECDBF80E4898383E08A8303
:101B80001B8263E070E0CE0101960E94BD0B8034A1
:101B900021F40E949F0C80E001C081E028960FB6DE
:101BA000F894DEBF0FBECDBFDF91CF9108951092A4
:101BB00043030E94B20D91E0811190E0892F0895B6
:101BC0000E94B20D80E0089587EB91E008958EE0C9
:101BD000E3ECF1E0ABE6B3E001900D928A95E1F71A
:101BE0004EE050E060E070E08BE693E00C948616E7
:101BF0004EE050E060E070E08BE693E00E947616E5
:101C000049E050E061ED71E08BE693E00E945916E7
:101C1000892BD1F08EE0EBE6F3E0DF011D928A958F
:101C2000E9F789E0E1EDF1E0ABE6B3E001900D9278
:101C30008A95E1F74EE050E060E070E08BE693E0DB
:101C40000E9486160C94E70D8EE0EBE6F3E0A3EC21
:101C5000B1E001900D928A95E1F7089520916A0311
:101C6000211104C0FC0160830C94E70D0895FF92DC
:101C70000F931F93CF93DF93EC018B0141305105FC
:101C8000A9F48091CC01883059F06091CD0170E0C9
:101C900089810E94C914F82E6091CD0170E011C0B5
:101CA000F98020E2F20E8A81805E25C04230510523
:101CB00061F462E070E089810E94C914F82E62E04C
:101CC00070E08A810E94C91416C08981992787FD16
:101CD000909580589F4F9595879595958795F82E67
:101CE0002A81332727FD309520583F4F359527957A
:101CF00035952795822F2B81332727FD3095205846
:101D00003F4F93E0359527959A95E1F74C815527FC
:101D100047FD509540585F4F63E0559547956A954C
:101D2000E1F79D819595959595955E81B901E3E0E3
:101D3000660F771FEA95E1F7607C6F29F8016083F1
:101D4000B901A5E0660F771FAA95E1F7607C682BC3
:101D500061833695322F222737952795692F687131
:101D6000F4E06F9FB0011124262B242BF80122836D
:101D7000F0E29F9FC0011124569556955695582B19
:101D8000F80153838885809584838F81809585832E
:101D900082E5868389859A8590878783D8011996FD
:101DA000FE013B9688E001900D928A95E1F7DF9164
:101DB000CF911F910F91FF900895EF92FF920F9393
:101DC0001F93CF93DF93EC017B0183E1FB01119221
:101DD0008A95E9F78881833009F4E1C018F48230EC
:101DE00041F0D0C5843009F444C3853009F429C1D9
:101DF000C9C583E5FB01818786E482878B819C814D
:101E0000948783879091CF018981992379F086FF08
:101E100005C087819085806490878783898187FF4B
:101E20002AC0F70187819085806123C087FF06C0A3
:101E3000FB0187819085806490878783898186FFF5
:101E400006C0F701878190858062908787838981AA
:101E50009A8197FF06C0F7018781908580619087FE
:101E6000878389819A8196FF06C0F70187819085D3
:101E70008860908787839091D00189819923C1F0F0
:101E800083FF03C084E6F7018283898182FF03C058
:101E90008CE9F7018283898181FF03C08CE9F70116
:101EA0008183898180FF27C084E6F701818323C075
:101EB00083FF06C0F70187819085816090878783C3
:101EC000898182FF06C0F7018781908590649087A1
:101ED0008783898181FF06C0F701878190858260B1
:101EE00090878783898180FF06C0F701878190856D
:101EF000906890878783898185FF06C0F701878175
:101F00009085906190878783898184FF06C0F7015F
:101F10008781908594609087878389819A8195FFD6
:101F200006C0F701878190859062908787838981B9
:101F30009A8194FF06C0F70187819085926090870F
:101F4000878389819A81887390738833904331F4B1
:101F50001092CF011092D0010E94E70D89819A81E1
:101F6000847390738433904339F481E08093CF017C
:101F70001092D0010E94E70D89819A81827390733B
:101F80008233904339F481E08093D0011092CF01E5
:101F90000E94E70D89819A8180719927D6C486E4D1
:101FA000FB01818783E482878A818387898187FF18
:101FB00005C087819085806190878783898186FFAE
:101FC00006C0F70187819085806490878783898127
:101FD00085FF06C0F7018781908590619087878390
:101FE000898184FF06C0F70187819085946090877E
:101FF0008783898183FF06C0F7018781908581608F
:1020000090878783898182FF06C0F7018781908549
:10201000906490878783898181FF06C0F70187815B
:102020009085826090878783898180FF06C0F70151
:10203000878190859068908787838981807190E0FF
:102040000CC287E4FB01818783E4828788E0FE017C
:102050003996DB011B9601900D928A95E1F78F81ED
:10206000442329F083FF03C091E090936A03909189
:10207000CE01923009F47BC028F4992361F09130AD
:10208000B1F172C1943009F4EEC008F4ACC09530DF
:1020900009F429C169C187FF06C0F70187819085CE
:1020A0008061908787838F8186FF06C0F7018781D3
:1020B00090858064908787838F8185FF06C0F701B4
:1020C000878190858860908787838F8184FF06C091
:1020D000F701878190858062908787838F819885BB
:1020E00093FF32C0F7018781908584682BC086FFFB
:1020F00006C0F701878190858062908787838F81F2
:1021000087FF06C0F7018781908580649087878369
:102110008F8184FF06C0F701878190858860908752
:1021200087838F8185FF06C0F70187819085806155
:10213000908787838F81988593FF06C0F7018781F9
:1021400090859061908787838F81988591FF06C0E5
:10215000F701878190859062908787838F8198852A
:1021600092FF02C1F701878190859260FBC087FFD3
:1021700006C0F701878190858061908787838F8172
:1021800086FF06C0F70187819085806490878783EA
:102190008F8185FF06C0F7018781908588609087D1
:1021A00087838F8184FF06C0F701878190858062D5
:1021B000908787838F81988593FF06C0F701878179
:1021C00090859260908787838F81988591FF06C064
:1021D000F701878190858068908787838F819885B4
:1021E00092FFC2C07BC087FF06C0F7018781908540
:1021F0008460908787838F8186FF06C0F70187817F
:1022000090858061908787838F8185FF06C0F70165
:10221000878190858064908787838F8184FF06C043
:10222000F701878190858860908787838F81988563
:1022300093FF06C0F701878190858064908787832C
:102240008F81988591FF06C0F7018781908580680E
:10225000908787838F81988592FF86C0F701878159
:10226000908580627FC087FF06C0F70187819085D7
:102270008064908787838F8186FF06C0F7018781FE
:1022800090858062908787838F8185FF06C0F701E4
:10229000878190858061908787838F8184FF06C0C6
:1022A000F701878190858860908787838F819885E3
:1022B00091FF06C0F70187819085906290878783A0
:1022C0008F81988592FF06C0F70187819085926083
:1022D000908787838F81988593FF46C0F701878118
:1022E000908584603FC087FF06C0F7018781908595
:1022F0008061908787838F8186FF06C0F701878181
:1023000090858860908787838F8185FF06C0F7015D
:10231000878190859260908787838F8184FF06C034
:10232000F701878190858064908787838F81988566
:1023300091FF06C0F7018781908580689087878329
:102340008F81988592FF06C0F70187819085846010
:10235000908787838F81988593FF06C0F7018781D7
:1023600090859061908787838F8183FF06C0F701F6
:10237000878190859460908787838F81988594FF6B
:1023800006C0F701878190858160908787838F8160
:10239000988595FF06C0F7018781908590649087A6
:1023A00087838F81988597FF06C0F7018781908585
:1023B0008260908787838F81988596FF06C0F7019A
:1023C000878190859068908787838981F7018183D1
:1023D0008A8182838B8183838C8184838D818583B1
:1023E0008E8186838F8198859C01207F3071203F6C
:1023F000304111F460E029C09C01207F3072203F01
:10240000304211F461E021C09C01207F3078203FF0
:10241000304811F462E019C09C01207F3074203FE5
:10242000304411F463E011C0807F9870803F984081
:1024300081F48B81803C2CF464E08EEC91E00E946E
:102440002E0E8B8181342CF065E08EEC91E00E94A1
:102450002E0E8F819885887099270E94D714882323
:1024600009F490C2F70187819085986090878783EF
:1024700089C286E3FB01818784E382870D811E8107
:102480002F81388503871487258736878B819C8128
:10249000442329F083FF03C021E020936A039C01B9
:1024A00024713C7024313C4011F460E036C09C0142
:1024B00024723C7024323C4011F461E02EC09C0137
:1024C00024743C7024343C4011F462E026C09C012A
:1024D00024783C7024383C4011F463E01EC09C0119
:1024E00024703C7124303C4111F464E016C09C011E
:1024F00024703C7224303C4211F465E00EC09C0113
:1025000024703C7424303C4411F466E006C08470AE
:102510009C7884309C4829F467E08CEC91E00E9420
:102520002E0E80916A03811114C08B819C819C01C5
:1025300025703C7025303C4011F483E006C0867065
:102540009C7086309C4029F481E08093CD010E94EC
:10255000E70D8B8180FF06C0F70187819085806140
:10256000908787838B8181FF06C0F70187819085E3
:102570008064908787838B8183FF06C0F701878102
:1025800090859460908787832091CC01283089F1D1
:102590008B8184FF06C0F7018781908581609087D9
:1025A00087838B8185FF06C0F701878190859064C2
:1025B000908787838B8186FF06C0F701878190858E
:1025C0008260908787838B8187FF06C0F7018781B0
:1025D0009085906890878783422F50E0483051055E
:1025E00008F02DC1FA01EC5CFF4F8B819C810C94AB
:1025F00053168B8182FF06C0F7018781908584681E
:10260000908787838B819C8193FF06C0F701878128
:1026100090859260908787838B819C8192FF06C012
:10262000F701878190859062908787838B819C8159
:102630008474907F8434904F09F0FFC0F701878144
:102640009085886290878783F8C082FF06C0F70173
:10265000878190859062908787838B819C8193FF8F
:1026600006C0F701878190859260908787838B8170
:102670009C8192FFE4C0C0C082FF06C0F701878141
:1026800090859062908787838B819C8193FF06C0A1
:10269000F701878190859260908787838B819C81E9
:1026A00092FFCDC0F701878190859064C3C092FFEF
:1026B00006C0F701878190859064908787838B811E
:1026C0009C8193FF06C0F70187819085846890877D
:1026D00087838B8182FF06C0F70187819085926294
:1026E000908787838B819C8196FF06C0F701878145
:1026F00090858062908787838B819C8195FF9FC0A6
:1027000029C092FF06C0F701878190858468908771
:1027100087838B819C8193FF06C0F7018781908519
:102720009260908787838B8182FF06C0F701878143
:1027300090859062908787838B819C8196FF06C0ED
:10274000F701878190858062908787838B819C8148
:1027500097FF75C0F7018781908588606BC092FFF5
:1027600006C0F701878190859062908787838B816F
:102770009C8193FF06C0F7018781908592609087C6
:1027800087838B8182FF5BC0F70187819085906290
:1027900051C092FF06C0F7018781908590689087AD
:1027A00087838B819C8193FF06C0F7018781908589
:1027B0009260908787838B8182FF06C0F7018781B3
:1027C00090859062908787838B819C8195FF06C05E
:1027D000F701878190858860908787838B819C81B2
:1027E00096FF06C0F7018781908580629087878376
:1027F0008B819C8197FF23C0F70187819085846836
:1028000019C092FF06C0F701878190858468908780
:1028100087838B819C8193FF06C0F7018781908518
:102820009260908787838B8182FF09C0F70187813F
:10283000908588629087878302C0283019F1243000
:1028400009F49AC0263009F497C08B819C8194FFCB
:1028500003C084E6F70184838B819C8195FF03C0CC
:102860008CE9F70184838B819C8196FF03C08CE9FE
:10287000F70183838B819C8197FF7EC084E6F701FB
:1028800083837AC08B819C8120917B0394FF09C054
:1028900020FD0AC030917A033F5F30937A032160B4
:1028A00001C02E7F20937B0320917B0395FF09C0FD
:1028B00021FD0AC030917A03315030937A032260AF
:1028C00001C02D7F20937B0320917B0396FF09C0DD
:1028D00022FD0AC0309179033F5F30937903246071
:1028E00001C02B7F20937B0320917B0397FF09C0BE
:1028F00023FD0AC030917903315030937903286069
:1029000001C0277F20937B0384FF04C080917A035A
:10291000F70182838B8185FF05C080917A038195C1
:10292000F70182838B8186FF04C080917903F701D0
:1029300081838B8187FF05C0809179038195F701A1
:1029400081838B819C81887099270E94D71488236A
:1029500031F0F70187819085986090878783F70130
:102960008781908595FF02C02FEF258391FF0AC0D4
:102970008FEFF701868306C08981F70181838A8101
:102980008283DFCFDF91CF911F910F91FF90EF9066
:10299000089587FD05C00E942A0A90E2980F05C09D
:1029A00081950E942A0A90E2981B892F0895209110
:1029B0007F03222321F0215020937F0326C0209102
:1029C0007E032F5F20937E0325312CF010927D0330
:1029D00010927E031CC020917C03332727FD309585
:1029E0008217930739F020917D032F5F20937D0399
:1029F00010927E0320917D0326304CF010927D03CF
:102A000010927E0384E180937F0381E00895809398
:102A10007C0380E00895CF93DF93CDB7DEB7EF97C7
:102A20000FB6F894DEBF0FBECDBF87E088B983EC48
:102A300087B915B88FEF84B990E19BB98AB90E9424
:102A4000F80D0E94B80B0E940A0A5C010E94B50BA7
:102A5000782E692E0E94E40D582E492E40E0BE01CA
:102A60006C5E7F4F80E090E00E94DD0E40E050E021
:102A7000BE01695D7F4FCE0144960E94370E0E94D1
:102A8000530C99278130910541F0029761F485E05C
:102A90008093DC018CE291E024C084E08093DC012F
:102AA00082E391E01EC00E940A0A8C01DC011296AA
:102AB000ED91FC9113970995D8011696ED91FC9133
:102AC0001797CE01019609958981823029F4809368
:102AD000DC0186E291E005C083E08093DC0180E2C6
:102AE00091E00E94870800E715E020E031E041E135
:102AF000BE01695D7F4F88E391E00E9429080E9432
:102B000077087894E12CF12C912CC12CD12C312C0C
:102B1000812C00E010E098E0292E83B78E6083BFFF
:102B200083B7816083BF889583B78E7F83BF809191
:102B3000DD018823E1F31092DD0189E89BE1019733
:102B4000F1F700C00000882021F091E08916A1F182
:102B50004FC010926A03AFEFEA1AFA0AB9E7EB1610
:102B6000F104CCF00E94530C8130910561F0029782
:102B700019F0E12CF12C0FC0052D142DE12CF12CB6
:102B800082E0382E06C0072D162DE12CF12C3324BF
:102B9000339488248394D5011296ED91FC91139778
:102BA0000995D5011696ED91FC911797CE010196E6
:102BB00009959924939420C0D8011296ED91FC9127
:102BC00013970995882341F0BFEFCB1ADB0A8BE0FE
:102BD000C816D1048CF00CC0D8011696ED91FC916A
:102BE0001797CE0101960995992021F0939402C080
:102BF000812C02C0C12CD12C0E948408811119C0E3
:102C0000492DBE016C5E7F4FCE0101960E94DD0E04
:102C1000B2E0B9150CF4912C432D50E0BE01695D72
:102C20007F4FCE0144960E94370E61E1CE01879618
:102C300037C04091DC01298130E0842F992787FD3E
:102C400090952817390709F068CF433021F14CF4EB
:102C5000423009F062CF8C819D8199AF88AF62E0EC
:102C60001DC0443071F0453009F057CFFE013A964F
:102C7000DE01D896822D01900D928A95E1F768E0E9
:102C80000DC08E819F81A885B98588AF99AFAAAF05
:102C9000BBAF64E003C08B8188AF61E0CE01C89612
:102CA0000E9422083ACFEE0FFF1F0590F491E02D0D
:102CB0000994FB01DC0104C08D910190801921F47D
:102CC00041505040C8F7881B990B0895FB01DC0167
:102CD00002C001900D9241505040D8F70895DC0198
:102CE00001C06D9341505040E0F70895DC01CB01E5
:102CF000FC01F999FECF06C0F2BDE1BDF89A31960C
:102D000000B40D9241505040B8F70895DC01A40F73
:102D1000B51F4150504048F0CB01840F951F2E91B4
:102D20000E94971641505040D0F70895262FF999E8
:102D3000FECF92BD81BDF89A019700B4021639F01A
:102D40001FBA20BD0FB6F894FA9AF99A0FBE0895EB
:042D5000F894FFCF25
:102D5400E02080E02080E02080E02080000000006F
:102D6400E02080E02080E02080E02080000000005F
:102D74000000A42052080000A42052100000A42047
:102D840052470000A42052640000A4200101FB0962
:102D9400CF09C6099A0900000000000104070B0FBF
:102DA40013171B1F252B32393F45494D5053565994
:102DB4005C5E60616263640000000001020304065B
:102DC400080A0C0E10121920262C343C3D3E3F40BC
:102DD4004142434445464748494A00010203060C20
:102DE40012161F2832383C404345464748494A009A
:102DF40000000000000000000000B10B8F0A860AEA
:102E04003A0A4E0A600A05E00DB20D960C8B0C00CE
:102E140000D70D455854454E4D4F5445000300000E
:0C2E240000455854454E4D4F54450000E9
:00000001FF
